{
  "_format": "hh-sol-artifact-1",
  "contractName": "TicketChain",
  "sourceName": "contracts/TicketChain.sol",
  "abi": [
    {
      "inputs": [],
      "stateMutability": "nonpayable",
      "type": "constructor"
    },
    {
      "inputs": [
        {
          "internalType": "address",
          "name": "sender",
          "type": "address"
        },
        {
          "internalType": "uint256",
          "name": "tokenId",
          "type": "uint256"
        },
        {
          "internalType": "address",
          "name": "owner",
          "type": "address"
        }
      ],
      "name": "ERC721IncorrectOwner",
      "type": "error"
    },
    {
      "inputs": [
        {
          "internalType": "address",
          "name": "operator",
          "type": "address"
        },
        {
          "internalType": "uint256",
          "name": "tokenId",
          "type": "uint256"
        }
      ],
      "name": "ERC721InsufficientApproval",
      "type": "error"
    },
    {
      "inputs": [
        {
          "internalType": "address",
          "name": "approver",
          "type": "address"
        }
      ],
      "name": "ERC721InvalidApprover",
      "type": "error"
    },
    {
      "inputs": [
        {
          "internalType": "address",
          "name": "operator",
          "type": "address"
        }
      ],
      "name": "ERC721InvalidOperator",
      "type": "error"
    },
    {
      "inputs": [
        {
          "internalType": "address",
          "name": "owner",
          "type": "address"
        }
      ],
      "name": "ERC721InvalidOwner",
      "type": "error"
    },
    {
      "inputs": [
        {
          "internalType": "address",
          "name": "receiver",
          "type": "address"
        }
      ],
      "name": "ERC721InvalidReceiver",
      "type": "error"
    },
    {
      "inputs": [
        {
          "internalType": "address",
          "name": "sender",
          "type": "address"
        }
      ],
      "name": "ERC721InvalidSender",
      "type": "error"
    },
    {
      "inputs": [
        {
          "internalType": "uint256",
          "name": "tokenId",
          "type": "uint256"
        }
      ],
      "name": "ERC721NonexistentToken",
      "type": "error"
    },
    {
      "inputs": [
        {
          "internalType": "address",
          "name": "owner",
          "type": "address"
        }
      ],
      "name": "OwnableInvalidOwner",
      "type": "error"
    },
    {
      "inputs": [
        {
          "internalType": "address",
          "name": "account",
          "type": "address"
        }
      ],
      "name": "OwnableUnauthorizedAccount",
      "type": "error"
    },
    {
      "anonymous": false,
      "inputs": [
        {
          "indexed": true,
          "internalType": "address",
          "name": "owner",
          "type": "address"
        },
        {
          "indexed": true,
          "internalType": "address",
          "name": "approved",
          "type": "address"
        },
        {
          "indexed": true,
          "internalType": "uint256",
          "name": "tokenId",
          "type": "uint256"
        }
      ],
      "name": "Approval",
      "type": "event"
    },
    {
      "anonymous": false,
      "inputs": [
        {
          "indexed": true,
          "internalType": "address",
          "name": "owner",
          "type": "address"
        },
        {
          "indexed": true,
          "internalType": "address",
          "name": "operator",
          "type": "address"
        },
        {
          "indexed": false,
          "internalType": "bool",
          "name": "approved",
          "type": "bool"
        }
      ],
      "name": "ApprovalForAll",
      "type": "event"
    },
    {
      "anonymous": false,
      "inputs": [
        {
          "indexed": false,
          "internalType": "uint256",
          "name": "_fromTokenId",
          "type": "uint256"
        },
        {
          "indexed": false,
          "internalType": "uint256",
          "name": "_toTokenId",
          "type": "uint256"
        }
      ],
      "name": "BatchMetadataUpdate",
      "type": "event"
    },
    {
      "anonymous": false,
      "inputs": [
        {
          "indexed": true,
          "internalType": "uint256",
          "name": "eventId",
          "type": "uint256"
        },
        {
          "indexed": false,
          "internalType": "string",
          "name": "title",
          "type": "string"
        },
        {
          "indexed": false,
          "internalType": "uint256",
          "name": "price",
          "type": "uint256"
        },
        {
          "indexed": false,
          "internalType": "address",
          "name": "organizer",
          "type": "address"
        },
        {
          "indexed": false,
          "internalType": "uint256",
          "name": "date",
          "type": "uint256"
        }
      ],
      "name": "EventCreated",
      "type": "event"
    },
    {
      "anonymous": false,
      "inputs": [
        {
          "indexed": true,
          "internalType": "address",
          "name": "owner",
          "type": "address"
        },
        {
          "indexed": false,
          "internalType": "uint256",
          "name": "amount",
          "type": "uint256"
        }
      ],
      "name": "FeesWithdrawn",
      "type": "event"
    },
    {
      "anonymous": false,
      "inputs": [
        {
          "indexed": false,
          "internalType": "uint256",
          "name": "_tokenId",
          "type": "uint256"
        }
      ],
      "name": "MetadataUpdate",
      "type": "event"
    },
    {
      "anonymous": false,
      "inputs": [
        {
          "indexed": true,
          "internalType": "address",
          "name": "previousOwner",
          "type": "address"
        },
        {
          "indexed": true,
          "internalType": "address",
          "name": "newOwner",
          "type": "address"
        }
      ],
      "name": "OwnershipTransferred",
      "type": "event"
    },
    {
      "anonymous": false,
      "inputs": [
        {
          "indexed": true,
          "internalType": "uint256",
          "name": "tokenId",
          "type": "uint256"
        },
        {
          "indexed": true,
          "internalType": "uint256",
          "name": "eventId",
          "type": "uint256"
        },
        {
          "indexed": false,
          "internalType": "address",
          "name": "buyer",
          "type": "address"
        },
        {
          "indexed": false,
          "internalType": "uint256",
          "name": "price",
          "type": "uint256"
        }
      ],
      "name": "TicketBought",
      "type": "event"
    },
    {
      "anonymous": false,
      "inputs": [
        {
          "indexed": true,
          "internalType": "uint256",
          "name": "tokenId",
          "type": "uint256"
        },
        {
          "indexed": true,
          "internalType": "uint256",
          "name": "eventId",
          "type": "uint256"
        },
        {
          "indexed": false,
          "internalType": "address",
          "name": "verifier",
          "type": "address"
        }
      ],
      "name": "TicketVerified",
      "type": "event"
    },
    {
      "anonymous": false,
      "inputs": [
        {
          "indexed": true,
          "internalType": "address",
          "name": "from",
          "type": "address"
        },
        {
          "indexed": true,
          "internalType": "address",
          "name": "to",
          "type": "address"
        },
        {
          "indexed": true,
          "internalType": "uint256",
          "name": "tokenId",
          "type": "uint256"
        }
      ],
      "name": "Transfer",
      "type": "event"
    },
    {
      "inputs": [
        {
          "internalType": "address",
          "name": "to",
          "type": "address"
        },
        {
          "internalType": "uint256",
          "name": "tokenId",
          "type": "uint256"
        }
      ],
      "name": "approve",
      "outputs": [],
      "stateMutability": "nonpayable",
      "type": "function"
    },
    {
      "inputs": [
        {
          "internalType": "address",
          "name": "owner",
          "type": "address"
        }
      ],
      "name": "balanceOf",
      "outputs": [
        {
          "internalType": "uint256",
          "name": "",
          "type": "uint256"
        }
      ],
      "stateMutability": "view",
      "type": "function"
    },
    {
      "inputs": [
        {
          "internalType": "uint256",
          "name": "eventId",
          "type": "uint256"
        }
      ],
      "name": "buyTicket",
      "outputs": [
        {
          "internalType": "uint256",
          "name": "",
          "type": "uint256"
        }
      ],
      "stateMutability": "payable",
      "type": "function"
    },
    {
      "inputs": [],
      "name": "collectedFees",
      "outputs": [
        {
          "internalType": "uint256",
          "name": "",
          "type": "uint256"
        }
      ],
      "stateMutability": "view",
      "type": "function"
    },
    {
      "inputs": [
        {
          "internalType": "string",
          "name": "title",
          "type": "string"
        },
        {
          "internalType": "string",
          "name": "description",
          "type": "string"
        },
        {
          "internalType": "uint256",
          "name": "price",
          "type": "uint256"
        },
        {
          "internalType": "uint256",
          "name": "totalSupply",
          "type": "uint256"
        },
        {
          "internalType": "string",
          "name": "imageUri",
          "type": "string"
        },
        {
          "internalType": "uint256",
          "name": "date",
          "type": "uint256"
        },
        {
          "internalType": "string",
          "name": "location",
          "type": "string"
        }
      ],
      "name": "createEvent",
      "outputs": [
        {
          "internalType": "uint256",
          "name": "",
          "type": "uint256"
        }
      ],
      "stateMutability": "nonpayable",
      "type": "function"
    },
    {
      "inputs": [
        {
          "internalType": "uint256",
          "name": "",
          "type": "uint256"
        }
      ],
      "name": "events",
      "outputs": [
        {
          "internalType": "uint256",
          "name": "id",
          "type": "uint256"
        },
        {
          "internalType": "string",
          "name": "title",
          "type": "string"
        },
        {
          "internalType": "string",
          "name": "description",
          "type": "string"
        },
        {
          "internalType": "uint256",
          "name": "price",
          "type": "uint256"
        },
        {
          "internalType": "uint256",
          "name": "totalSupply",
          "type": "uint256"
        },
        {
          "internalType": "uint256",
          "name": "soldCount",
          "type": "uint256"
        },
        {
          "internalType": "address",
          "name": "organizer",
          "type": "address"
        },
        {
          "internalType": "string",
          "name": "imageUri",
          "type": "string"
        },
        {
          "internalType": "uint256",
          "name": "date",
          "type": "uint256"
        },
        {
          "internalType": "string",
          "name": "location",
          "type": "string"
        }
      ],
      "stateMutability": "view",
      "type": "function"
    },
    {
      "inputs": [
        {
          "internalType": "uint256",
          "name": "tokenId",
          "type": "uint256"
        }
      ],
      "name": "getApproved",
      "outputs": [
        {
          "internalType": "address",
          "name": "",
          "type": "address"
        }
      ],
      "stateMutability": "view",
      "type": "function"
    },
    {
      "inputs": [],
      "name": "getEvents",
      "outputs": [
        {
          "components": [
            {
              "internalType": "uint256",
              "name": "id",
              "type": "uint256"
            },
            {
              "internalType": "string",
              "name": "title",
              "type": "string"
            },
            {
              "internalType": "string",
              "name": "description",
              "type": "string"
            },
            {
              "internalType": "uint256",
              "name": "price",
              "type": "uint256"
            },
            {
              "internalType": "uint256",
              "name": "totalSupply",
              "type": "uint256"
            },
            {
              "internalType": "uint256",
              "name": "soldCount",
              "type": "uint256"
            },
            {
              "internalType": "address",
              "name": "organizer",
              "type": "address"
            },
            {
              "internalType": "string",
              "name": "imageUri",
              "type": "string"
            },
            {
              "internalType": "uint256",
              "name": "date",
              "type": "uint256"
            },
            {
              "internalType": "string",
              "name": "location",
              "type": "string"
            }
          ],
          "internalType": "struct TicketChain.Event[]",
          "name": "",
          "type": "tuple[]"
        }
      ],
      "stateMutability": "view",
      "type": "function"
    },
    {
      "inputs": [
        {
          "internalType": "uint256",
          "name": "tokenId",
          "type": "uint256"
        }
      ],
      "name": "getTicketDetails",
      "outputs": [
        {
          "components": [
            {
              "internalType": "uint256",
              "name": "tokenId",
              "type": "uint256"
            },
            {
              "internalType": "uint256",
              "name": "eventId",
              "type": "uint256"
            },
            {
              "internalType": "bool",
              "name": "isUsed",
              "type": "bool"
            },
            {
              "internalType": "uint256",
              "name": "purchaseTime",
              "type": "uint256"
            }
          ],
          "internalType": "struct TicketChain.Ticket",
          "name": "",
          "type": "tuple"
        }
      ],
      "stateMutability": "view",
      "type": "function"
    },
    {
      "inputs": [
        {
          "internalType": "address",
          "name": "user",
          "type": "address"
        }
      ],
      "name": "getUserTickets",
      "outputs": [
        {
          "internalType": "uint256[]",
          "name": "",
          "type": "uint256[]"
        }
      ],
      "stateMutability": "view",
      "type": "function"
    },
    {
      "inputs": [
        {
          "internalType": "address",
          "name": "owner",
          "type": "address"
        },
        {
          "internalType": "address",
          "name": "operator",
          "type": "address"
        }
      ],
      "name": "isApprovedForAll",
      "outputs": [
        {
          "internalType": "bool",
          "name": "",
          "type": "bool"
        }
      ],
      "stateMutability": "view",
      "type": "function"
    },
    {
      "inputs": [],
      "name": "name",
      "outputs": [
        {
          "internalType": "string",
          "name": "",
          "type": "string"
        }
      ],
      "stateMutability": "view",
      "type": "function"
    },
    {
      "inputs": [],
      "name": "owner",
      "outputs": [
        {
          "internalType": "address",
          "name": "",
          "type": "address"
        }
      ],
      "stateMutability": "view",
      "type": "function"
    },
    {
      "inputs": [
        {
          "internalType": "uint256",
          "name": "tokenId",
          "type": "uint256"
        }
      ],
      "name": "ownerOf",
      "outputs": [
        {
          "internalType": "address",
          "name": "",
          "type": "address"
        }
      ],
      "stateMutability": "view",
      "type": "function"
    },
    {
      "inputs": [],
      "name": "platformFee",
      "outputs": [
        {
          "internalType": "uint256",
          "name": "",
          "type": "uint256"
        }
      ],
      "stateMutability": "view",
      "type": "function"
    },
    {
      "inputs": [],
      "name": "renounceOwnership",
      "outputs": [],
      "stateMutability": "nonpayable",
      "type": "function"
    },
    {
      "inputs": [
        {
          "internalType": "address",
          "name": "from",
          "type": "address"
        },
        {
          "internalType": "address",
          "name": "to",
          "type": "address"
        },
        {
          "internalType": "uint256",
          "name": "tokenId",
          "type": "uint256"
        }
      ],
      "name": "safeTransferFrom",
      "outputs": [],
      "stateMutability": "nonpayable",
      "type": "function"
    },
    {
      "inputs": [
        {
          "internalType": "address",
          "name": "from",
          "type": "address"
        },
        {
          "internalType": "address",
          "name": "to",
          "type": "address"
        },
        {
          "internalType": "uint256",
          "name": "tokenId",
          "type": "uint256"
        },
        {
          "internalType": "bytes",
          "name": "data",
          "type": "bytes"
        }
      ],
      "name": "safeTransferFrom",
      "outputs": [],
      "stateMutability": "nonpayable",
      "type": "function"
    },
    {
      "inputs": [
        {
          "internalType": "address",
          "name": "operator",
          "type": "address"
        },
        {
          "internalType": "bool",
          "name": "approved",
          "type": "bool"
        }
      ],
      "name": "setApprovalForAll",
      "outputs": [],
      "stateMutability": "nonpayable",
      "type": "function"
    },
    {
      "inputs": [
        {
          "internalType": "uint256",
          "name": "_newFee",
          "type": "uint256"
        }
      ],
      "name": "setPlatformFee",
      "outputs": [],
      "stateMutability": "nonpayable",
      "type": "function"
    },
    {
      "inputs": [
        {
          "internalType": "bytes4",
          "name": "interfaceId",
          "type": "bytes4"
        }
      ],
      "name": "supportsInterface",
      "outputs": [
        {
          "internalType": "bool",
          "name": "",
          "type": "bool"
        }
      ],
      "stateMutability": "view",
      "type": "function"
    },
    {
      "inputs": [],
      "name": "symbol",
      "outputs": [
        {
          "internalType": "string",
          "name": "",
          "type": "string"
        }
      ],
      "stateMutability": "view",
      "type": "function"
    },
    {
      "inputs": [
        {
          "internalType": "uint256",
          "name": "",
          "type": "uint256"
        }
      ],
      "name": "tickets",
      "outputs": [
        {
          "internalType": "uint256",
          "name": "tokenId",
          "type": "uint256"
        },
        {
          "internalType": "uint256",
          "name": "eventId",
          "type": "uint256"
        },
        {
          "internalType": "bool",
          "name": "isUsed",
          "type": "bool"
        },
        {
          "internalType": "uint256",
          "name": "purchaseTime",
          "type": "uint256"
        }
      ],
      "stateMutability": "view",
      "type": "function"
    },
    {
      "inputs": [
        {
          "internalType": "uint256",
          "name": "tokenId",
          "type": "uint256"
        }
      ],
      "name": "tokenURI",
      "outputs": [
        {
          "internalType": "string",
          "name": "",
          "type": "string"
        }
      ],
      "stateMutability": "view",
      "type": "function"
    },
    {
      "inputs": [
        {
          "internalType": "address",
          "name": "from",
          "type": "address"
        },
        {
          "internalType": "address",
          "name": "to",
          "type": "address"
        },
        {
          "internalType": "uint256",
          "name": "tokenId",
          "type": "uint256"
        }
      ],
      "name": "transferFrom",
      "outputs": [],
      "stateMutability": "nonpayable",
      "type": "function"
    },
    {
      "inputs": [
        {
          "internalType": "address",
          "name": "newOwner",
          "type": "address"
        }
      ],
      "name": "transferOwnership",
      "outputs": [],
      "stateMutability": "nonpayable",
      "type": "function"
    },
    {
      "inputs": [
        {
          "internalType": "address",
          "name": "",
          "type": "address"
        },
        {
          "internalType": "uint256",
          "name": "",
          "type": "uint256"
        }
      ],
      "name": "userTickets",
      "outputs": [
        {
          "internalType": "uint256",
          "name": "",
          "type": "uint256"
        }
      ],
      "stateMutability": "view",
      "type": "function"
    },
    {
      "inputs": [
        {
          "internalType": "uint256",
          "name": "tokenId",
          "type": "uint256"
        }
      ],
      "name": "verifyTicket",
      "outputs": [],
      "stateMutability": "nonpayable",
      "type": "function"
    },
    {
      "inputs": [],
      "name": "withdrawFees",
      "outputs": [],
      "stateMutability": "nonpayable",
      "type": "function"
    }
  ],
  "bytecode": "0x608060405260fa600d5534801562000015575f80fd5b50336040518060400160405280600b81526020016a2a34b1b5b2ba21b430b4b760a91b815250604051806040016040528060038152602001621510d560ea1b815250815f9081620000679190620001a8565b506001620000768282620001a8565b5050506001600160a01b038116620000a757604051631e4fbdf760e01b81525f600482015260240160405180910390fd5b620000b281620000b9565b5062000274565b600780546001600160a01b038381166001600160a01b0319831681179093556040519116919082907f8be0079c531659141344cd1fd0a4f28419497f9722a3daafe3b4186f6b6457e0905f90a35050565b634e487b7160e01b5f52604160045260245ffd5b600181811c908216806200013357607f821691505b6020821081036200015257634e487b7160e01b5f52602260045260245ffd5b50919050565b601f821115620001a357805f5260205f20601f840160051c810160208510156200017f5750805b601f840160051c820191505b81811015620001a0575f81556001016200018b565b50505b505050565b81516001600160401b03811115620001c457620001c46200010a565b620001dc81620001d584546200011e565b8462000158565b602080601f83116001811462000212575f8415620001fa5750858301515b5f19600386901b1c1916600185901b1785556200026c565b5f85815260208120601f198616915b82811015620002425788860151825594840194600190910190840162000221565b50858210156200026057878501515f19600388901b60f8161c191681555b505060018460011b0185555b505050505050565b6126aa80620002825f395ff3fe6080604052600436106101ba575f3560e01c8063543cb81f116100f257806395d89b4111610092578063cf260baf11610062578063cf260baf14610568578063e985e9c514610587578063ec4bf299146105a6578063f2fde38b146105c5575f80fd5b806395d89b41146104f7578063a22cb4651461050b578063b88d4fde1461052a578063c87b56dd14610549575f80fd5b806370a08231116100cd57806370a0823114610492578063715018a6146104b15780638da5cb5b146104c55780639003adfe146104e2575f80fd5b8063543cb81f146104415780636352211e1461046057806367dd74ca1461047f575f80fd5b806323b872dd1161015d578063404aa8f911610138578063404aa8f91461038157806342842e0e146103a2578063476343ee146103c157806350b44712146103d5575f80fd5b806323b872dd146102eb57806324c141601461030a57806326232a2e1461035e575f80fd5b8063081812fc11610198578063081812fc1461023f578063095ea7b3146102765780630b7914301461029757806312e8e2c3146102cc575f80fd5b806301ffc9a7146101be5780630484a22f146101f257806306fdde031461021e575b5f80fd5b3480156101c9575f80fd5b506101dd6101d8366004611ea0565b6105e4565b60405190151581526020015b60405180910390f35b3480156101fd575f80fd5b5061021161020c366004611ed6565b61060e565b6040516101e99190611eef565b348015610229575f80fd5b50610232610677565b6040516101e99190611f7f565b34801561024a575f80fd5b5061025e610259366004611f91565b610706565b6040516001600160a01b0390911681526020016101e9565b348015610281575f80fd5b50610295610290366004611fa8565b61072d565b005b3480156102a2575f80fd5b506102b66102b1366004611f91565b61073c565b6040516101e99a99989796959493929190611fd0565b3480156102d7575f80fd5b506102956102e6366004611f91565b6109ae565b3480156102f6575f80fd5b50610295610305366004612062565b610a01565b348015610315575f80fd5b50610329610324366004611f91565b610a8a565b6040516101e9919081518152602080830151908201526040808301511515908201526060918201519181019190915260800190565b348015610369575f80fd5b50610373600d5481565b6040519081526020016101e9565b34801561038c575f80fd5b50610395610afc565b6040516101e9919061209b565b3480156103ad575f80fd5b506102956103bc366004612062565b610e83565b3480156103cc575f80fd5b50610295610ea2565b3480156103e0575f80fd5b5061041b6103ef366004611f91565b600b6020525f908152604090208054600182015460028301546003909301549192909160ff9091169084565b6040805194855260208501939093529015159183019190915260608201526080016101e9565b34801561044c575f80fd5b5061029561045b366004611f91565b610f45565b34801561046b575f80fd5b5061025e61047a366004611f91565b6110c0565b61037361048d366004611f91565b6110ca565b34801561049d575f80fd5b506103736104ac366004611ed6565b6112d2565b3480156104bc575f80fd5b50610295611317565b3480156104d0575f80fd5b506007546001600160a01b031661025e565b3480156104ed575f80fd5b50610373600e5481565b348015610502575f80fd5b5061023261132a565b348015610516575f80fd5b506102956105253660046121a3565b611339565b348015610535575f80fd5b50610295610544366004612263565b611344565b348015610554575f80fd5b50610232610563366004611f91565b61135c565b348015610573575f80fd5b50610373610582366004611fa8565b6113dd565b348015610592575f80fd5b506101dd6105a13660046122da565b611408565b3480156105b1575f80fd5b506103736105c0366004612329565b611435565b3480156105d0575f80fd5b506102956105df366004611ed6565b61159c565b5f6001600160e01b03198216632483248360e11b14806106085750610608826115d9565b92915050565b6001600160a01b0381165f908152600c602090815260409182902080548351818402810184019094528084526060939283018282801561066b57602002820191905f5260205f20905b815481526020019060010190808311610657575b50505050509050919050565b60605f8054610685906123ea565b80601f01602080910402602001604051908101604052809291908181526020018280546106b1906123ea565b80156106fc5780601f106106d3576101008083540402835291602001916106fc565b820191905f5260205f20905b8154815290600101906020018083116106df57829003601f168201915b5050505050905090565b5f61071082611628565b505f828152600460205260409020546001600160a01b0316610608565b610738828233611660565b5050565b600a6020525f90815260409020805460018201805491929161075d906123ea565b80601f0160208091040260200160405190810160405280929190818152602001828054610789906123ea565b80156107d45780601f106107ab576101008083540402835291602001916107d4565b820191905f5260205f20905b8154815290600101906020018083116107b757829003601f168201915b5050505050908060020180546107e9906123ea565b80601f0160208091040260200160405190810160405280929190818152602001828054610815906123ea565b80156108605780601f1061083757610100808354040283529160200191610860565b820191905f5260205f20905b81548152906001019060200180831161084357829003601f168201915b5050506003840154600485015460058601546006870154600788018054979894979396509194506001600160a01b0316929161089b906123ea565b80601f01602080910402602001604051908101604052809291908181526020018280546108c7906123ea565b80156109125780601f106108e957610100808354040283529160200191610912565b820191905f5260205f20905b8154815290600101906020018083116108f557829003601f168201915b50505050509080600801549080600901805461092d906123ea565b80601f0160208091040260200160405190810160405280929190818152602001828054610959906123ea565b80156109a45780601f1061097b576101008083540402835291602001916109a4565b820191905f5260205f20905b81548152906001019060200180831161098757829003601f168201915b505050505090508a565b6109b661166d565b6103e88111156109fc5760405162461bcd60e51b815260206004820152600c60248201526b08ccaca40e8dede40d0d2ced60a31b60448201526064015b60405180910390fd5b600d55565b6001600160a01b038216610a2a57604051633250574960e11b81525f60048201526024016109f3565b5f610a3683833361169a565b9050836001600160a01b0316816001600160a01b031614610a84576040516364283d7b60e01b81526001600160a01b03808616600483015260248201849052821660448201526064016109f3565b50505050565b610ab360405180608001604052805f81526020015f81526020015f151581526020015f81525090565b505f908152600b6020908152604091829020825160808101845281548152600182015492810192909252600281015460ff16151592820192909252600390910154606082015290565b60605f60095467ffffffffffffffff811115610b1a57610b1a6121dc565b604051908082528060200260200182016040528015610ba457816020015b610b916040518061014001604052805f815260200160608152602001606081526020015f81526020015f81526020015f81526020015f6001600160a01b03168152602001606081526020015f8152602001606081525090565b815260200190600190039081610b385790505b5090505f5b600954811015610e7d57600a5f8281526020019081526020015f20604051806101400160405290815f8201548152602001600182018054610be9906123ea565b80601f0160208091040260200160405190810160405280929190818152602001828054610c15906123ea565b8015610c605780601f10610c3757610100808354040283529160200191610c60565b820191905f5260205f20905b815481529060010190602001808311610c4357829003601f168201915b50505050508152602001600282018054610c79906123ea565b80601f0160208091040260200160405190810160405280929190818152602001828054610ca5906123ea565b8015610cf05780601f10610cc757610100808354040283529160200191610cf0565b820191905f5260205f20905b815481529060010190602001808311610cd357829003601f168201915b505050918352505060038201546020820152600482015460408201526005820154606082015260068201546001600160a01b0316608082015260078201805460a090920191610d3e906123ea565b80601f0160208091040260200160405190810160405280929190818152602001828054610d6a906123ea565b8015610db55780601f10610d8c57610100808354040283529160200191610db5565b820191905f5260205f20905b815481529060010190602001808311610d9857829003601f168201915b5050505050815260200160088201548152602001600982018054610dd8906123ea565b80601f0160208091040260200160405190810160405280929190818152602001828054610e04906123ea565b8015610e4f5780601f10610e2657610100808354040283529160200191610e4f565b820191905f5260205f20905b815481529060010190602001808311610e3257829003601f168201915b505050505081525050828281518110610e6a57610e6a61241c565b6020908102919091010152600101610ba9565b50919050565b610e9d83838360405180602001604052805f815250611344565b505050565b610eaa61166d565b600e80545f9091556007546001600160a01b03166001600160a01b03166108fc8290811502906040515f60405180830381858888f19350505050158015610ef3573d5f803e3d5ffd5b506007546001600160a01b03166001600160a01b03167fc0819c13be868895eb93e40eaceb96de976442fa1d404e5c55f14bb65a8c489a82604051610f3a91815260200190565b60405180910390a250565b5f818152600b6020526040812090610f5c836110c0565b6001600160a01b031603610faa5760405162461bcd60e51b8152602060048201526015602482015274151a58dad95d08191bd95cc81b9bdd08195e1a5cdd605a1b60448201526064016109f3565b600281015460ff1615610ff55760405162461bcd60e51b8152602060048201526013602482015272151a58dad95d08185b1c9958591e481d5cd959606a1b60448201526064016109f3565b60018101545f908152600a6020526040902060068101546001600160a01b031633148061102c57506007546001600160a01b031633145b6110705760405162461bcd60e51b81526020600482015260156024820152742ab730baba3437b934bd32b2103b32b934b334b2b960591b60448201526064016109f3565b60028201805460ff1916600190811790915582015460405133815284907f6ecbf3753c09d6826f07847b60fd7a5f6f69604d2f40a0f6ab9d700b18366f8d906020015b60405180910390a3505050565b5f61060882611628565b5f818152600a6020526040812060038101543410156111225760405162461bcd60e51b8152602060048201526014602482015273125b9cdd59999a58da595b9d081c185e5b595b9d60621b60448201526064016109f3565b80600401548160050154106111645760405162461bcd60e51b815260206004820152600860248201526714dbdb19081bdd5d60c21b60448201526064016109f3565b600880545f918261117483612444565b909155506005830180549192505f61118b83612444565b919050555061119a338261178c565b6040805160808101825282815260208082018781525f8385018181524260608601908152878352600b8552868320955186559251600180870191909155905160028601805460ff19169115159190911790559151600390940193909355338352600c82529282208054938401815582528120909101829055600d5461271090611223903461245c565b61122d9190612473565b90505f61123a8234612492565b905081600e5f82825461124d91906124a5565b909155505060068401546040516001600160a01b039091169082156108fc029083905f818181858888f1935050505015801561128b573d5f803e3d5ffd5b5060408051338152346020820152879185917f52de8fe1ed66c4fa07d63a12f0ec959aa4df057a5684ac2afc80fbd06f5bf4d1910160405180910390a35090949350505050565b5f6001600160a01b0382166112fc576040516322718ad960e21b81525f60048201526024016109f3565b506001600160a01b03165f9081526003602052604090205490565b61131f61166d565b6113285f6117a5565b565b606060018054610685906123ea565b6107383383836117f6565b61134f848484610a01565b610a8433858585856118b5565b606061136782611628565b505f61137d60408051602081019091525f815290565b90505f611389846119dd565b905081515f0361139a579392505050565b8051156113cc5781816040516020016113b49291906124b8565b60405160208183030381529060405292505050919050565b6113d584611a72565b949350505050565b600c602052815f5260405f2081815481106113f6575f80fd5b905f5260205f20015f91509150505481565b6001600160a01b039182165f90815260056020908152604080832093909416825291909152205460ff1690565b600980545f918291908261144883612444565b90915550604080516101408101825282815260208082018d81528284018d9052606083018c9052608083018b90525f60a084018190523360c085015260e084018b905261010084018a90526101208401899052858152600a9092529290208151815591519293509160018201906114bf908261252a565b50604082015160028201906114d4908261252a565b50606082015160038201556080820151600482015560a0820151600582015560c08201516006820180546001600160a01b0319166001600160a01b0390921691909117905560e0820151600782019061152d908261252a565b506101008201516008820155610120820151600982019061154e908261252a565b50905050807f88f91a8cee50507bf8f67ddf436d225a426a493c10f4a94db0ad16d480de7dd78a89338860405161158894939291906125e6565b60405180910390a298975050505050505050565b6115a461166d565b6001600160a01b0381166115cd57604051631e4fbdf760e01b81525f60048201526024016109f3565b6115d6816117a5565b50565b5f6001600160e01b031982166380ac58cd60e01b148061160957506001600160e01b03198216635b5e139f60e01b145b8061060857506301ffc9a760e01b6001600160e01b0319831614610608565b5f818152600260205260408120546001600160a01b03168061060857604051637e27328960e01b8152600481018490526024016109f3565b610e9d8383836001611ae3565b6007546001600160a01b031633146113285760405163118cdaa760e01b81523360048201526024016109f3565b5f828152600260205260408120546001600160a01b03908116908316156116c6576116c6818486611be7565b6001600160a01b03811615611700576116e15f855f80611ae3565b6001600160a01b0381165f90815260036020526040902080545f190190555b6001600160a01b0385161561172e576001600160a01b0385165f908152600360205260409020805460010190555b5f8481526002602052604080822080546001600160a01b0319166001600160a01b0389811691821790925591518793918516917fddf252ad1be2c89b69c2b068fc378daa952ba7f163c4a11628f55a4df523b3ef91a4949350505050565b610738828260405180602001604052805f815250611c4b565b600780546001600160a01b038381166001600160a01b0319831681179093556040519116919082907f8be0079c531659141344cd1fd0a4f28419497f9722a3daafe3b4186f6b6457e0905f90a35050565b6001600160a01b03831661181f5760405163a9fbf51f60e01b81525f60048201526024016109f3565b6001600160a01b03821661185157604051630b61174360e31b81526001600160a01b03831660048201526024016109f3565b6001600160a01b038381165f81815260056020908152604080832094871680845294825291829020805460ff191686151590811790915591519182527f17307eab39ab6107e8899845ad3d59bd9653f200f220920489ca2b5937696c3191016110b3565b6001600160a01b0383163b156119d657604051630a85bd0160e11b81526001600160a01b0384169063150b7a02906118f790889088908790879060040161261d565b6020604051808303815f875af1925050508015611931575060408051601f3d908101601f1916820190925261192e91810190612659565b60015b611998573d80801561195e576040519150601f19603f3d011682016040523d82523d5f602084013e611963565b606091505b5080515f0361199057604051633250574960e11b81526001600160a01b03851660048201526024016109f3565b805160208201fd5b6001600160e01b03198116630a85bd0160e11b146119d457604051633250574960e11b81526001600160a01b03851660048201526024016109f3565b505b5050505050565b5f8181526006602052604090208054606091906119f9906123ea565b80601f0160208091040260200160405190810160405280929190818152602001828054611a25906123ea565b801561066b5780601f10611a475761010080835404028352916020019161066b565b820191905f5260205f20905b815481529060010190602001808311611a535750939695505050505050565b6060611a7d82611628565b505f611a9360408051602081019091525f815290565b90505f815111611ab15760405180602001604052805f815250611adc565b80611abb84611c62565b604051602001611acc9291906124b8565b6040516020818303038152906040525b9392505050565b8080611af757506001600160a01b03821615155b15611bb8575f611b0684611628565b90506001600160a01b03831615801590611b325750826001600160a01b0316816001600160a01b031614155b8015611b455750611b438184611408565b155b15611b6e5760405163a9fbf51f60e01b81526001600160a01b03841660048201526024016109f3565b8115611bb65783856001600160a01b0316826001600160a01b03167f8c5be1e5ebec7d5bd14f71427d1e84f3dd0314c0f7b2291e5b200ac8c7c3b92560405160405180910390a45b505b50505f90815260046020526040902080546001600160a01b0319166001600160a01b0392909216919091179055565b611bf2838383611cf2565b610e9d576001600160a01b038316611c2057604051637e27328960e01b8152600481018290526024016109f3565b60405163177e802f60e01b81526001600160a01b0383166004820152602481018290526044016109f3565b611c558383611d53565b610e9d335f8585856118b5565b60605f611c6e83611db4565b60010190505f8167ffffffffffffffff811115611c8d57611c8d6121dc565b6040519080825280601f01601f191660200182016040528015611cb7576020820181803683370190505b5090508181016020015b5f19016f181899199a1a9b1b9c1cb0b131b232b360811b600a86061a8153600a8504945084611cc157509392505050565b5f6001600160a01b038316158015906113d55750826001600160a01b0316846001600160a01b03161480611d2b5750611d2b8484611408565b806113d55750505f908152600460205260409020546001600160a01b03908116911614919050565b6001600160a01b038216611d7c57604051633250574960e11b81525f60048201526024016109f3565b5f611d8883835f61169a565b90506001600160a01b03811615610e9d576040516339e3563760e11b81525f60048201526024016109f3565b5f8072184f03e93ff9f4daa797ed6e38ed64bf6a1f0160401b8310611df25772184f03e93ff9f4daa797ed6e38ed64bf6a1f0160401b830492506040015b6d04ee2d6d415b85acef81000000008310611e1e576d04ee2d6d415b85acef8100000000830492506020015b662386f26fc100008310611e3c57662386f26fc10000830492506010015b6305f5e1008310611e54576305f5e100830492506008015b6127108310611e6857612710830492506004015b60648310611e7a576064830492506002015b600a83106106085760010192915050565b6001600160e01b0319811681146115d6575f80fd5b5f60208284031215611eb0575f80fd5b8135611adc81611e8b565b80356001600160a01b0381168114611ed1575f80fd5b919050565b5f60208284031215611ee6575f80fd5b611adc82611ebb565b602080825282518282018190525f9190848201906040850190845b81811015611f2657835183529284019291840191600101611f0a565b50909695505050505050565b5f5b83811015611f4c578181015183820152602001611f34565b50505f910152565b5f8151808452611f6b816020860160208601611f32565b601f01601f19169290920160200192915050565b602081525f611adc6020830184611f54565b5f60208284031215611fa1575f80fd5b5035919050565b5f8060408385031215611fb9575f80fd5b611fc283611ebb565b946020939093013593505050565b5f6101408c8352806020840152611fe98184018d611f54565b90508281036040840152611ffd818c611f54565b606084018b9052608084018a905260a084018990526001600160a01b03881660c085015283810360e085015290506120358187611f54565b9050846101008401528281036101208401526120518185611f54565b9d9c50505050505050505050505050565b5f805f60608486031215612074575f80fd5b61207d84611ebb565b925061208b60208501611ebb565b9150604084013590509250925092565b5f60208083018184528085518083526040925060408601915060408160051b8701018488015f5b8381101561219557603f1989840301855281516101408151855288820151818a8701526120f182870182611f54565b91505087820151858203898701526121098282611f54565b606084810151908801526080808501519088015260a0808501519088015260c0808501516001600160a01b03169088015260e080850151888303828a015291935091506121568382611f54565b9250505061010080830151818701525061012080830151925085820381870152506121818183611f54565b9689019694505050908601906001016120c2565b509098975050505050505050565b5f80604083850312156121b4575f80fd5b6121bd83611ebb565b9150602083013580151581146121d1575f80fd5b809150509250929050565b634e487b7160e01b5f52604160045260245ffd5b5f67ffffffffffffffff8084111561220a5761220a6121dc565b604051601f8501601f19908116603f01168101908282118183101715612232576122326121dc565b8160405280935085815286868601111561224a575f80fd5b858560208301375f602087830101525050509392505050565b5f805f8060808587031215612276575f80fd5b61227f85611ebb565b935061228d60208601611ebb565b925060408501359150606085013567ffffffffffffffff8111156122af575f80fd5b8501601f810187136122bf575f80fd5b6122ce878235602084016121f0565b91505092959194509250565b5f80604083850312156122eb575f80fd5b6122f483611ebb565b915061230260208401611ebb565b90509250929050565b5f82601f83011261231a575f80fd5b611adc838335602085016121f0565b5f805f805f805f60e0888a03121561233f575f80fd5b873567ffffffffffffffff80821115612356575f80fd5b6123628b838c0161230b565b985060208a0135915080821115612377575f80fd5b6123838b838c0161230b565b975060408a0135965060608a0135955060808a01359150808211156123a6575f80fd5b6123b28b838c0161230b565b945060a08a0135935060c08a01359150808211156123ce575f80fd5b506123db8a828b0161230b565b91505092959891949750929550565b600181811c908216806123fe57607f821691505b602082108103610e7d57634e487b7160e01b5f52602260045260245ffd5b634e487b7160e01b5f52603260045260245ffd5b634e487b7160e01b5f52601160045260245ffd5b5f6001820161245557612455612430565b5060010190565b808202811582820484141761060857610608612430565b5f8261248d57634e487b7160e01b5f52601260045260245ffd5b500490565b8181038181111561060857610608612430565b8082018082111561060857610608612430565b5f83516124c9818460208801611f32565b8351908301906124dd818360208801611f32565b01949350505050565b601f821115610e9d57805f5260205f20601f840160051c8101602085101561250b5750805b601f840160051c820191505b818110156119d6575f8155600101612517565b815167ffffffffffffffff811115612544576125446121dc565b6125588161255284546123ea565b846124e6565b602080601f83116001811461258b575f84156125745750858301515b5f19600386901b1c1916600185901b1785556119d4565b5f85815260208120601f198616915b828110156125b95788860151825594840194600190910190840161259a565b50858210156125d657878501515f19600388901b60f8161c191681555b5050505050600190811b01905550565b608081525f6125f86080830187611f54565b6020830195909552506001600160a01b03929092166040830152606090910152919050565b6001600160a01b03858116825284166020820152604081018390526080606082018190525f9061264f90830184611f54565b9695505050505050565b5f60208284031215612669575f80fd5b8151611adc81611e8b56fea2646970667358221220dc55efd3a2113c3b90446873b2161053b3c49657820bec692fb6cdcb726a54a064736f6c63430008180033",
  "linkReferences": {},
  "deployedLinkReferences": {}
}